S00D000074657374322E7372656325
S11300000C942A000C9476030C9492040C94AE0580
S11300100C9447000C9447000C9447000C94510333
S11300200C9447000C9447000C9447000C94470030
S11300300C9447000C9447000C9447000C94470020
S11300400C9447000C9447000C9447000C94470010
S11300500C94470011241FBECFE5D8E0DEBFCDBF0E
S113006010E0A0E6B0E0E0E8F5E102C005900D92F2
S1130070A63FB107D9F721E0A6EFB0E001C01D9279
S1130080AA33B207E1F70E945D080C94BE0A0C94EF
S1130090000080EF84BB8FEF85BB85B38F7085BB79
S11300A0000083B38F70809318018F30B1F787E815
S11300B093E10197F1F700C0000083B38F70809340
S11300C018018F30A1F38FE097E20197F1F700C098
S11300D0000083B38F70809318018F3041F38FEE4B
S11300E085BB000083B38F70809318018F3019F0A3
S11300F01092190127C08FED85BB000083B38F7068
S1130100809318018F3021F081E0809319011AC087
S11301108FEB85BB000083B38F70809318018F3001
S113012021F082E0809319010DC08FE785BB0000A8
S113013083B38F70809318018F3009F4AACF83E0C2
S113014080931901809118018E3059F4E0911901BE
S1130150F0E0EE0FFF1FEE0FFF1FE05AFF4F80810C
S113016008958D3059F4E0911901F0E0EE0FFF1F6E
S1130170EE0FFF1FE05AFF4F818108958B3059F431
S1130180E0911901F0E0EE0FFF1FEE0FFF1FE05AA0
S1130190FF4F82810895E0911901F0E0EE0FFF1FF7
S11301A0EE0FFF1FE05AFF4F838108958FEF84BB4A
S11301B015BA08958FEF81BB12BA0895AC0120E0FF
S11301C030E022C090E995BB8BED95E00197F1F703
S11301D000C0000090EC95BB8BED95E00197F1F722
S11301E000C0000090E695BB8BED95E00197F1F718
S11301F000C0000090E395BB8BED95E00197F1F70B
S113020000C000002F5F3F4F24173507DCF280E960
S113021085BB8BED95E00197F1F700C000000895D0
S1130220AC0120E030E022C090E395BB8BED95E07B
S11302300197F1F700C0000090E695BB8BED95E0C7
S11302400197F1F700C0000090EC95BB8BED95E0B1
S11302500197F1F700C0000090E995BB8BED95E0A4
S11302600197F1F700C000002F5F3F4F24173507B7
S1130270DCF280E985BB8BED95E00197F1F700C0D6
S113028000000895AC0120E030E022C090E992BB68
S11302908BED95E00197F1F700C0000090EC92BB64
S11302A08BED95E00197F1F700C0000090E692BB5A
S11302B08BED95E00197F1F700C0000090E392BB4D
S11302C08BED95E00197F1F700C000002F5F3F4FE1
S11302D024173507DCF280E982BB8BED95E00197AA
S11302E0F1F700C000000895AC0120E030E022C026
S11302F090E392BB8BED95E00197F1F700C000000D
S113030090E692BB8BED95E00197F1F700C00000F9
S113031090EC92BB8BED95E00197F1F700C00000E3
S113032090E992BB8BED95E00197F1F700C00000D6
S11303302F5F3F4F24173507DCF280E982BB8BED3A
S113034095E00197F1F700C00000089581B3836040
S113035081BB82B382BB82B382BB089582B38C7F9C
S113036082BB089522B3216022BB07C089EF90E0CD
S11303700197F1F700C00000C9019C012150310927
S1130380892BA1F70E94AE01089522B3226022BBFB
S113039007C089EF90E00197F1F700C00000C901A0
S11303A09C0121503109892BA1F70E94AE010895C7
S11303B00E94A60184E190E00E94C50184E190E0DE
S11303C00E94B2010E94AE0108951ABA87E886B964
S11303D080E487B9089597B18F70982B97B986B147
S11303E0806486B9349BFECF83E08A95F1F70000E0
S11303F024B185B190E0982F8827820F911D08952C
S113040085B3886085BB089585B385BB089588B39B
S113041088BB88B388BB089588B3886088BB88B3D9
S113042088BB089588B388BB88B3886088BB089567
S113043083ED90E30197F1F700C0000088B3826078
S113044088BB95E09A95F1F788B38D7F88BB80913E
S113045016019091170184359B401CF081E090E0D7
S1130460089580E090E0089580EF84BB8FE085BB21
S113047008950E9434029A9BFECF81E090E0089593
S11304801FBC1EBC8EB585608EBD1DBC1CBC0895F2
S11304908F929F92AF92BF92CF92DF92EF92FF9290
S11304A00F931F936B017C0188B388BB88B388BB0F
S11304B088B3806288BB0E94400281B38B7F81BB7A
S11304C08FEF82BB81B38B7F81BB80E48BBF83E0E2
S11304D085BF7894B3C08091020190910301A091EB
S11304E00401B091050140910C0150910D016091FE
S11304F00E0170910F01841B950BA60BB70B883E60
S11305009340A105B10508F499C08091FE00909133
S1130510FF00A0910001B09101010196A11DB11D40
S11305208093FE009093FF00A0930001B09301011B
S11305308091FE009091FF00A0910001B091010113
S11305400197A105B10509F079C0F89480910201E1
S113055090910301A0910401B091050100910C0157
S113056010910D0120910E0130910F01BC01CD01BC
S1130570601B710B820B930B0E9464099B01AC01FD
S113058060E070E08AE794E40E94BC084B015C01DF
S1130590609110017091110180E090E00E94640963
S11305A0A50194010E941B0A2091700030917100F2
S11305B040917200509173000E94BC086093120134
S11305C0709313018093140190931501009102011B
S11305D010910301209104013091050100930C0155
S11305E010930D0120930E0130930F0120E030E0B1
S11305F040E752E40E94BC0820E030E04AE754E4BB
S11306000E941B0A0E94350970930B0160930A0132
S11306102091060130910701409108015091090190
S1130620DA01C901860F971FA11DB11D8093060130
S113063090930701A0930801B0930901609106010A
S11306407091070180910801909109010E94640949
S1130650A70196010E94B70881113DCF88B38F7D11
S113066088BB1092020110920301109204011092AF
S113067005011092FE001092FF00109200011092EA
S11306800101109211011092100178941F910F91A1
S1130690FF90EF90DF90CF90BF90AF909F908F909E
S11306A008951F920F920FB60F9211248F939F9368
S11306B0AF93BF938091020190910301A091040133
S11306C0B09105010196A11DB11D80930201909383
S11306D00301A0930401B0930501BF91AF919F91D1
S11306E08F910F900FBE0F901F9018951F920F922D
S11306F00FB60F9211248F939F93809110019091C4
S11307001101019690931101809310019F918F9193
S11307100F900FBE0F901F9018958F929F92AF92DB
S1130720BF92CF92DF92EF92FF920F931F936B01D0
S11307307C0188B3806488BB0E94400281B38B7FB4
S113074081BB8FEF82BB81B3877F81BB80E88BBF86
S11307508CE085BF7894B3C080910201909103012D
S1130760A0910401B091050140910C0150910D013B
S113077060910E0170910F01841B950BA60BB70BB2
S1130780883E9340A105B10508F499C08091FE000C
S11307909091FF00A0910001B09101010196A11D6B
S11307A0B11D8093FE009093FF00A0930001B093CD
S11307B001018091FE009091FF00A0910001B09191
S11307C001010197A105B10509F079C0F894809160
S11307D0020190910301A0910401B09105010091DF
S11307E00C0110910D0120910E0130910F01BC01FB
S11307F0CD01601B710B820B930B0E9464099B015A
S1130800AC0160E070E08AE794E40E94BC084B010C
S11308105C01609110017091110180E090E00E94F0
S11308206409A50194010E941B0A20917000309173
S1130830710040917200509173000E94BC08609353
S11308401201709313018093140190931501009188
S113085002011091030120910401309105010093DC
S11308600C0110930D0120930E0130930F0120E031
S113087030E040E752E40E94BC0820E030E04AE760
S113088054E40E941B0A0E94350970930B01609383
S11308900A0120910601309107014091080150910D
S11308A00901DA01C901860F971FA11DB11D8093AB
S11308B0060190930701A0930801B0930901609188
S11308C006017091070180910801909109010E942D
S11308D06409A70196010E94B70881113DCF88B32E
S11308E08F7B88BB109202011092030110920401C5
S11308F0109205011092FE001092FF001092000168
S113090010920101109211011092100178941F911C
S11309100F91FF90EF90DF90CF90BF90AF909F909A
S11309208F9008951F920F920FB60F9211248F93F8
S11309309F93809110019091110101969093110160
S1130940809310019F918F910F900FBE0F901F9075
S113095018958F929F92AF92BF92CF92DF92EF92AF
S1130960FF920F931F936B017C0188B3806888BB4F
S11309700E94400287B38B7F87BB8FEF88BB87B30E
S11309808B7F87BB80E28BBF80E485BF7894B3C044
S11309908091020190910301A0910401B09105019D
S11309A040910C0150910D0160910E0170910F0165
S11309B0841B950BA60BB70B883E9340A105B1058C
S11309C008F499C08091FE009091FF00A09100016D
S11309D0B09101010196A11DB11D8093FE00909379
S11309E0FF00A0930001B09301018091FE0090915B
S11309F0FF00A0910001B09101010197A105B1058B
S1130A0009F079C0F8948091020190910301A091BA
S1130A100401B091050100910C0110910D01209188
S1130A200E0130910F01BC01CD01601B710B820BD3
S1130A30930B0E9464099B01AC0160E070E08AE7BB
S1130A4094E40E94BC084B015C0160911001709118
S1130A50110180E090E00E946409A50194010E94C4
S1130A601B0A2091700030917100409172005091E6
S1130A7073000E94BC086093120170931301809369
S1130A80140190931501009102011091030120912A
S1130A9004013091050100930C0110930D01209382
S1130AA00E0130930F0120E030E040E752E40E9451
S1130AB0BC0820E030E04AE754E40E941B0A0E948C
S1130AC0350970930B0160930A012091060130915E
S1130AD007014091080150910901DA01C901860F0B
S1130AE0971FA11DB11D8093060190930701A09348
S1130AF00801B0930901609106017091070180918A
S1130B000801909109010E946409A70196010E94BD
S1130B10B70881113DCF88B38F7788BB109202014B
S1130B201092030110920401109205011092FE002C
S1130B301092FF0010920001109201011092110115
S1130B401092100178941F910F91FF90EF90DF9015
S1130B50CF90BF90AF909F908F9008951F920F9267
S1130B600FB60F9211248F939F938091100190914F
S1130B701101019690931101809310019F918F911F
S1130B800F900FBE0F901F90189582E680B984E0F5
S1130B9086BF11B8089584EA86BF06B607FEFDCF66
S1130BA0089583B984E886BF06B607FEFDCF08958D
S1130BB040E050E00AC02F5F3F4F02C020E030E029
S1130BC029373105C4F34F5F5F4F84179507B4F796
S1130BD0089583B1826083B984E886BF06B607FEB0
S1130BE0FDCF81E090E00E94D80583B18D7F83B969
S1130BF084E886BF06B607FEFDCF089593B19E7FB5
S1130C0093B994E896BF06B607FEFDCF93B19F70E3
S1130C1093B994E896BF06B607FEFDCF93B1807FE3
S1130C20892B83B984E886BF06B607FEFDCF0E94F0
S1130C30E9050895CF93C82F83B18E7F83B984E8E3
S1130C4086BF06B607FEFDCF83B18F7083B984E8F3
S1130C5086BF06B607FEFDCF83B19C2F907F892BFC
S1130C6083B984E886BF06B607FEFDCF0E94E90576
S1130C7083B18F7083B984E886BF06B607FEFDCFC3
S1130C8023B130E1C39FC0011124822B83B984E8CE
S1130C9086BF06B607FEFDCF0E94E905CF910895F1
S1130CA080E30E94FE0580E30E94FE0580E20E942C
S1130CB0FE0588E20E941A068CE00E941A0681E072
S1130CC00E941A0686E00E941A0680E80E941A060C
S1130CD00895CF93C82F83B1816083B984E886BF18
S1130CE006B607FEFDCF83B18F7083B984E886BF53
S1130CF006B607FEFDCF83B19C2F907F892B83B965
S1130D0084E886BF06B607FEFDCF0E94E90583B1DD
S1130D108F7083B984E886BF06B607FEFDCF23B182
S1130D2030E1C39FC0011124822B83B984E886BFBC
S1130D3006B607FEFDCF0E94E905CF910895CF9333
S1130D40DF93EC0103C021960E946906888181111A
S1130D50FACFDF91CF910895CF93DF930E94C50519
S1130D600E94CB0587E00E94D1050E94500680E8CE
S1130D700E941A0684E790E00E949F0680EC0E947D
S1130D801A0684E10E941A0684E10E941A0684E18C
S1130D900E941A0684E10E941A068EE890E00E94DE
S1130DA09F062FE986E891E0215080409040E1F7CA
S1130DB000C00000C0E0D0E00AC088E10E941A062A
S1130DC087EA91E60197F1F700C000002196CB3144
S1130DD0D1059CF3DF91CF910895CF93DF9381E008
S1130DE00E941A0680E80E941A0686E990E00E9492
S1130DF09F0680EC0E941A068FE00E941A060E9449
S1130E004900682F70E08EE191E00E94AF0A67EA22
S1130E1070E08EE191E00E94A60A892B41F5809151
S1130E20F6009091F70018161906ACF580E10E94BF
S1130E301A0689EA90E00E949F0680E10E941A0641
S1130E4080E10E941A0684E10E941A068091F6004D
S1130E509091F70001979093F7008093F600FC01BE
S1130E60E45DFE4F20E230E03183208314C08EE144
S1130E7091E00E949F06C091F600D091F7006EE1C8
S1130E8071E0CE01845D9E4F0E94AF0A2196D093FB
S1130E90F700C093F60069EA70E08EE191E00E94E9
S1130EA0A60AEC018CE291E00E94880AAC0121E0E0
S1130EB0CD2B09F420E091E04115510509F090E0B3
S1130EC0922B09F09CCF5093FD004093FC0081E0ED
S1130ED00E941A0680E80E941A068091FC009091F4
S1130EE0FD0084319105F4F08BEA90E00E949F06A6
S1130EF02FE986E891E0215080409040E1F700C05E
S1130F000000C0E0D0E00AC088E10E941A0687EA27
S1130F1091E60197F1F700C000002196CB31D1058D
S1130F209CF35DCFDF91CF910895CF92DF92EF9242
S1130F30FF92CF93DF9386EC90E00E949F0680ECB3
S1130F400E941A068FE00E941A061092F70010926F
S1130F50F6000E944900682F70E08EE191E00E9443
S1130F60AF0A67EA70E08EE191E00E94A60A892B3D
S1130F7041F58091F6009091F70018161906ACF52A
S1130F8080E10E941A0689EA90E00E949F0680E1AF
S1130F900E941A0680E10E941A0684E10E941A0641
S1130FA08091F6009091F70001979093F700809359
S1130FB0F600FC01E45DFE4F20E230E03183208343
S1130FC014C08EE191E00E949F06C091F600D0917A
S1130FD0F7006EE171E0CE01845D9E4F0E94AF0A7E
S1130FE02196D093F700C093F60069EA70E08EE191
S1130FF091E00E94A60AEC018CE291E00E94880A2A
S1131000BC0121E0CD2B09F420E091E061157105CC
S113101009F090E0922B09F09CCF072E000C880B6E
S1131020990B0E9466096093F8007093F90080930D
S1131030FA009093FB0081E00E941A0680E80E9467
S11310401A06C090F800D090F900E090FA00F090F1
S1131050FB0020E030E44CE955E4C701B6010E94EE
S1131060160A8823F4F088ED90E00E949F062FE989
S113107086E891E0215080409040E1F700C00000F4
S1131080C0E0D0E00AC088E10E941A0687EA91E62F
S11310900197F1F700C000002196CC31D1059CF3F3
S11310A04ACFC701B6010E942E09CB01DF91CF912F
S11310B0FF90EF90DF90CF9008950E94AC060E94BD
S11310C0ED060E9495070E9407020E9418020E94E2
S11310D00C020E9418020E9412020E9418020E942E
S11310E0E50182E40E94EB010E9400020E94D60006
S11310F082E090E00E94DE000E943902892BE1F335
S11311000E9404020E94D60082E090E00E94100136
S11311100E94DA0082E090E00E9442016091360170
S11311207091370180913801909139010E944802F1
S1131130609128017091290180912A0190912B01DD
S11311400E948D0360911A0170911B0180911C0112
S113115090911D010E94A9040E94D8010E94DA0006
S113116082E090E00E9474010E940002A6CF0E94D7
S1131170A10908F481E008950E94D0080C94DC09C8
S11311800E94D50958F00E94CE0940F029F45F3F2F
S113119029F00C94C50951110C94100A0C94CB0934
S11311A00E94ED0968F39923B1F3552391F3951B3C
S11311B0550BBB27AA2762177307840738F09F5F74
S11311C05F4F220F331F441FAA1FA9F335D00E2EE1
S11311D03AF0E0E832D091505040E695001CCAF74E
S11311E02BD0FE2F29D0660F771F881FBB1F261711
S11311F037074807AB07B0E809F0BB0B802DBF01E8
S1131200FF2793585F4F3AF09E3F510578F00C94B6
S1131210C5090C94100A5F3FE4F3983ED4F3869515
S113122077956795B795F7959F5FC9F7880F911DD7
S11312309695879597F90895E1E0660F771F881FC3
S1131240BB1F621773078407BA0720F0621B730B76
S1131250840BBA0BEE1F88F7E09508950E943509B8
S11312606894B1110C94100A08950E94F50988F04D
S11312709F5798F0B92F9927B751B0F0E1F0660F56
S1131280771F881F991F1AF0BA95C9F714C0B13097
S113129091F00E940F0AB1E008950C940F0A672F91
S11312A0782F8827B85F39F0B93FCCF386957795C6
S11312B06795B395D9F73EF49095809570956195AF
S11312C07F4F8F4F9F4F0895E89409C097FB3EF4DA
S11312D090958095709561957F4F8F4F9F4F99237F
S11312E0A9F0F92F96E9BB279395F69587957795FD
S11312F06795B795F111F8CFFAF4BB0F11F460FFBD
S11313001BC06F5F7F4F8F4F9F4F16C0882311F014
S113131096E911C0772321F09EE8872F762F05C028
S1131320662371F096E8862F70E060E02AF09A95C3
S1131330660F771F881FDAF7880F9695879597F9B8
S11313400895990F0008550FAA0BE0E8FEEF161652
S11313501706E807F907C0F012161306E407F507A5
S113136098F0621B730B840B950B39F40A2661F019
S1131370232B242B252B21F408950A2609F4A140BC
S1131380A6958FEF811D811D089597F99F6780E8C9
S113139070E060E008959FEF80EC089500240A94C3
S11313A01616170618060906089500240A9412163C
S11313B01306140605060895092E0394000C11F46F
S11313C0882352F0BB0F40F4BF2B11F460FF04C01C
S11313D06F5F7F4F8F4F9F4F089557FD9058440F75
S11313E0551F59F05F3F71F04795880F97FB991F80
S11313F061F09F3F79F0879508951216130614063D
S1131400551FF2CF4695F1DF08C0161617061806C9
S1131410991FF1CF86957105610508940895E894A4
S1131420BB2766277727CB0197F908950E94A10966
S113143008F48FEF08950E942E0A0C94DC090E9490
S1131440CE0938F00E94D50920F0952311F00C94B0
S1131450C5090C94CB0911240C94100A0E94ED09BF
S113146070F3959FC1F3950F50E0551F629FF001F3
S1131470729FBB27F00DB11D639FAA27F00DB11D0C
S1131480AA1F649F6627B00DA11D661F829F222795
S1131490B00DA11D621F739FB00DA11D621F839F1C
S11314A0A00D611D221F749F3327A00D611D231FF2
S11314B0849F600D211D822F762F6A2F11249F5740
S11314C050409AF0F1F088234AF0EE0FFF1FBB1F43
S11314D0661F771F881F91505040A9F79E3F510502
S11314E080F00C94C5090C94100A5F3FE4F3983E15
S11314F0D4F3869577956795B795F795E7959F5FAC
S1131500C1F7FE2B880F911D9695879597F908953D
S1131510FC0188279927E89421912032E9F32930A6
S113152010F02E30C8F32B3241F02D3239F4689488
S113153004C00E94B60A820F911D219120532A30C3
S1131540C0F31EF4909581959F4F0895FB01DC0133
S11315508D91019080190110D9F3990B0895FB0125
S1131560DC0101900D920020E1F708957AE0979F45
S1131570902D879F802D910D11240895F894FFCF0D
S11315803738392E343536783132332D20303D2BEF
S11315900000904052756262657220536F6C7574DE
S11315A0696F6E204D6978657220312E3000576561
S11315B06C636F6D65004E756D626572206F662099
S11315C054726179733F003D002000456E7465726A
S11315D020612076616C7565206C65737320746876
S11315E0616E20323000566F6C2E6F66206120547D
S11315F0726179286D6C2900456E746572206120D2
S113160076616C7565206C657373207468616E20F7
S10916103530303000000B
S9030000FC
