:100000000C942A000C943F000C943F000C943F0089
:100010000C943F000C943F000C943F000C943F0064
:100020000C943F000C943F000C943F000C943F0054
:100030000C943F000C943F000C943F000C943F0044
:100040000C943F000C943F000C943F000C943F0034
:100050000C943F0011241FBECFE5D8E0DEBFCDBF1A
:1000600010E0A0E6B0E0E2ECF9E002C005900D92ED
:10007000A03EB107D9F70E944E030C94DF040C9404
:10008000000082E680B984E086BF11B8089584EA52
:1000900086BF06B607FEFDCF089583B984E886BF04
:1000A00006B607FEFDCF089540E050E00AC02F5F7E
:1000B0003F4F02C020E030E029373105C4F34F5FE5
:1000C0005F4F84179507B4F7089583B1826083B9B1
:1000D00084E886BF06B607FEFDCF81E090E00E946F
:1000E000540083B18D7F83B984E886BF06B607FECE
:1000F000FDCF089593B19E7F93B994E896BF06B65D
:1001000007FEFDCF93B19F7093B994E896BF06B6F2
:1001100007FEFDCF93B1807F892B83B984E886BF2A
:1001200006B607FEFDCF0E9465000895CF93C82F45
:1001300083B18E7F83B984E886BF06B607FEFDCF04
:1001400083B18F7083B984E886BF06B607FEFDCF02
:1001500083B19C2F907F892B83B984E886BF06B634
:1001600007FEFDCF0E94650083B18F7083B984E8DC
:1001700086BF06B607FEFDCF23B130E1C39FC001A5
:100180001124822B83B984E886BF06B607FEFDCF13
:100190000E946500CF91089580E30E947A0080E379
:1001A0000E947A0080E20E947A0088E20E94960013
:1001B0008CE00E94960081E00E94960086E00E94FA
:1001C000960080E80E9496000895CF93C82F83B1CF
:1001D000816083B984E886BF06B607FEFDCF83B190
:1001E0008F7083B984E886BF06B607FEFDCF83B162
:1001F0009C2F907F892B83B984E886BF06B607FEC3
:10020000FDCF0E94650083B18F7083B984E886BFFB
:1002100006B607FEFDCF23B130E1C39FC001112414
:10022000822B83B984E886BF06B607FEFDCF0E9405
:100230006500CF910895CF93DF93EC0103C0219621
:100240000E94E50088818111FACFDF91CF91089556
:1002500080EF8ABB8FEF8BBB8FE08BBB000089B335
:100260008F708F30C9F787E893E10197F1F700C0ED
:10027000000089B38F708F30B1F38FE097E2019760
:10028000F1F700C0000089B38F708F3061F38FEEFB
:100290008BBB000089B38F708F30C1F48FED8BBBA7
:1002A000000089B38F708F3099F48FEB8BBB000007
:1002B00089B38F708F3071F48FE78BBB000089B3E7
:1002C0008F708F3009F4C4CF93E005C090E003C075
:1002D00091E001C092E08E3081F4913009F44BC07E
:1002E00008F446C0923019F0933021F006C024E69D
:1002F00030E04CC026E630E049C08D3089F49130C2
:10030000E9F128F0923031F0933039F030C028E62E
:1003100030E03CC02CE630E039C026E930E036C0A1
:100320008B3089F4913069F128F0923031F09330BC
:1003300039F01DC02EE630E029C022E730E026C0AB
:1003400024E730E023C09130F9F028F0923031F00A
:10035000933039F009C026E730E018C02AE730E0D2
:1003600015C02CE730E012C027E630E00FC008953A
:1003700020E630E00BC022E630E008C02AE630E09C
:1003800005C020E730E002C028E730E0822F932F3D
:1003900008958FEF8ABB1BBA089540E050E07AC001
:1003A00029E030E0062E02C0220F331F0A94E2F744
:1003B0002BBBE7E9FAE33197F1F700C0000028E032
:1003C00030E0062E02C0220F331F0A94E2F72BBB47
:1003D000E7E9FAE33197F1F700C000002CE030E0E4
:1003E000062E02C0220F331F0A94E2F72BBBE7E967
:1003F000FAE33197F1F700C0000024E030E0062E68
:1004000002C0220F331F0A94E2F72BBBE7E9FAE39D
:100410003197F1F700C0000026E030E0062E02C060
:10042000220F331F0A94E2F72BBBE7E9FAE3319777
:10043000F1F700C0000022E030E0062E02C0220FDB
:10044000331F0A94E2F72BBBE7E9FAE33197F1F7A0
:1004500000C0000023E030E0062E02C0220F331F50
:100460000A94E2F72BBBE7E9FAE33197F1F700C012
:10047000000021E030E0062E02C0220F331F0A9454
:10048000E2F72BBBE7E9FAE33197F1F700C0000090
:100490004F5F5F4F481759070CF482CF89E090E017
:1004A00002C0880F991F6A95E2F78BBB87E99AE330
:1004B0000197F1F700C00000089540E050E07AC0D5
:1004C00021E030E0062E02C0220F331F0A94E2F72B
:1004D0002BBBE7E9FAE33197F1F700C0000023E016
:1004E00030E0062E02C0220F331F0A94E2F72BBB26
:1004F000E7E9FAE33197F1F700C0000022E030E0CD
:10050000062E02C0220F331F0A94E2F72BBBE7E945
:10051000FAE33197F1F700C0000026E030E0062E44
:1005200002C0220F331F0A94E2F72BBBE7E9FAE37C
:100530003197F1F700C0000024E030E0062E02C041
:10054000220F331F0A94E2F72BBBE7E9FAE3319756
:10055000F1F700C000002CE030E0062E02C0220FB0
:10056000331F0A94E2F72BBBE7E9FAE33197F1F77F
:1005700000C0000028E030E0062E02C0220F331F2A
:100580000A94E2F72BBBE7E9FAE33197F1F700C0F1
:10059000000029E030E0062E02C0220F331F0A942B
:1005A000E2F72BBBE7E9FAE33197F1F700C000006F
:1005B0004F5F5F4F481759070CF482CF89E090E0F6
:1005C00002C0880F991F6A95E2F78BBB87E99AE30F
:1005D0000197F1F700C0000008950E94C90160E092
:1005E00070E082E090E00E94CD012FE38DE093E087
:1005F000215080409040E1F700C0000060E070E0D2
:1006000082E090E00E945D02089587B3836087BB1B
:1006100088B388BB88B388BB089588B38C7F88BBB8
:10062000089528B3226028BB07C089EF90E00197A6
:10063000F1F700C00000C9019C0121503109892B4C
:10064000A1F70E940D0308950E94050380ED97E035
:100650000E94110308950E94C90164E070E082E0E5
:1006600090E00E94CD012FE38DE093E02150804087
:100670009040E1F700C000000E9424032FE38DE0CA
:1006800093E0215080409040E1F700C0000064E01A
:1006900070E082E090E00E945D020895CF93DF93C6
:1006A000CDB7DEB764970FB6F894DEBF0FBECDBFEF
:1006B0000E9441000E94470080E70E944D000E9476
:1006C000CC0080E80E9496008EE790E00E941B011B
:1006D00080EC0E94960084E10E94960084E10E94D2
:1006E000960084E10E94960084E10E94960088E9C9
:1006F00090E00E941B012FE986E891E021508040A4
:100700009040E1F700C0000000E010E00BC088E17D
:100710000E94960087EA91E60197F1F700C0000079
:100720000F5F1F4F0B31110594F381E00E9496007B
:1007300080E80E94960080EA90E00E941B0180EC15
:100740000E9496008FE00E94960000E010E00E9458
:100750002801BC01CE010B960E94D00464E770E032
:10076000CE010B960E94C704892B01F510161106C5
:1007700074F580E10E94960086E690E00E941B01DD
:1007800080E10E94960080E10E94960084E10E9430
:10079000960001501109E1E0F0E0EC0FFD1FE00FC1
:1007A000F11F80E290E09183808311C0CE010B960F
:1007B0000E941B01BE01655F7F4F81E090E08C0FBE
:1007C0009D1F800F911F0E94D0040F5F1F4F66E690
:1007D00070E0CE010B960E94C7047C01CE01019609
:1007E0000E94A904AC0121E0EF2809F420E091E087
:1007F0004115510509F090E0922B09F0A8CF142F74
:1008000081E00E94960080E80E9496001431F8F082
:1008100081EB90E00E941B019FE926E881E0915066
:1008200020408040E1F700C0000000E010E00BC075
:1008300088E10E94960087EA91E60197F1F700C0EF
:1008400000000F5F1F4F0B31110594F36ECF8CEC3E
:1008500090E00E941B0180EC0E9496008FE00E94B5
:1008600096001B86198200E010E00E942801BC015E
:10087000CE010B960E94D00464E770E0CE010B9687
:100880000E94C704892B01F51016110674F580E14A
:100890000E94960086E690E00E941B0180E10E9483
:1008A000960080E10E94960084E10E94960001502B
:1008B0001109E1E0F0E0EC0FFD1FE00FF11F80E215
:1008C00090E09183808311C0CE010B960E941B01A2
:1008D000BE01655F7F4F81E090E08C0F9D1F800F10
:1008E000911F0E94D0040F5F1F4F66E670E0CE019B
:1008F0000B960E94C7047C01CE0101960E94A904B8
:10090000AC0121E0EF2809F420E091E0452B09F04B
:1009100090E0922B09F0A9CF81E00E94960080E838
:100920000E9496000E94ED029FE926E881E0915026
:1009300020408040E1F700C000000E942B039FE9A7
:1009400026E881E0915020408040E1F700C000009F
:10095000B8CEFC0188279927E89421912032E9F349
:10096000293010F02E30C8F32B3241F02D3239F4FB
:10097000689404C00E94D704820F911D21912053D6
:100980002A30C0F31EF4909581959F4F0895FB0186
:10099000DC018D91019080190110D9F3990B089514
:1009A000FB01DC0101900D920020E1F708957AE04F
:1009B000979F902D879F802D910D11240895F89475
:0209C000FFCF67
:1009C2003700340031002000380035003200390091
:1009D200360033003D002F0078002D002B005275A9
:1009E2006262657220536F6C7574696F6E204D6917
:1009F20078657220312E300057656C636F6D65002B
:100A02004E756D626572206F662074726179733FF4
:100A120000456E74657220612076616C7565206C8C
:100A2200657373207468616E20323000566F6C2ECD
:100A3200206F662061207472617920286D6C290014
:00000001FF
