S00D000074657374322E7372656325
S11300000C942A000C9447000C9447000C9447006D
S11300100C9447000C9447000C9447000C94470040
S11300200C9447000C9447000C9447000C94470030
S11300300C9447000C9447000C9447000C94470020
S11300400C9447000C9447000C9447000C94470010
S11300500C94470011241FBECFE5D8E0DEBFCDBF0E
S113006010E0A0E6B0E0EEEAFBE002C005900D92DD
S1130070A43BB107D9F720E0A4EBB0E001C01D9286
S1130080AE3BB207E1F70E94F1010C94D5050C9444
S1130090000082E680B984E086BF11B8089584EA3E
S11300A086BF06B607FEFDCF089583B984E886BFF0
S11300B006B607FEFDCF089540E050E00AC02F5F6A
S11300C03F4F02C020E030E029373105C4F34F5FD1
S11300D05F4F84179507B4F7089583B1826083B99D
S11300E084E886BF06B607FEFDCF81E090E00E945B
S11300F05C0083B18D7F83B984E886BF06B607FEB2
S1130100FDCF089593B19E7F93B994E896BF06B648
S113011007FEFDCF93B19F7093B994E896BF06B6DE
S113012007FEFDCF93B1807F892B83B984E886BF16
S113013006B607FEFDCF0E946D000895CF93C82F29
S113014083B18E7F83B984E886BF06B607FEFDCFF0
S113015083B18F7083B984E886BF06B607FEFDCFEE
S113016083B19C2F907F892B83B984E886BF06B620
S113017007FEFDCF0E946D0083B18F7083B984E8C0
S113018086BF06B607FEFDCF23B130E1C39FC00191
S11301901124822B83B984E886BF06B607FEFDCFFF
S11301A00E946D00CF91089580E30E94820080E355
S11301B00E94820080E20E94820088E20E949E00E7
S11301C08CE00E949E0081E00E949E0086E00E94D6
S11301D09E0080E80E949E000895CF93C82F83B1AB
S11301E0816083B984E886BF06B607FEFDCF83B17C
S11301F08F7083B984E886BF06B607FEFDCF83B14E
S11302009C2F907F892B83B984E886BF06B607FEAE
S1130210FDCF0E946D0083B18F7083B984E886BFDF
S113022006B607FEFDCF23B130E1C39FC001112400
S1130230822B83B984E886BF06B607FEFDCF0E94F1
S11302406D00CF910895CF93DF93EC0103C0219605
S11302500E94ED0088818111FACFDF91CF9108953A
S113026080EF81BB8FEF82BB8FE082BB000080B345
S11302708F708093B6008F30B9F787E893E10197C8
S1130280F1F700C0000080B38F708093B6008F3008
S1130290A1F38FE097E20197F1F700C0000080B36B
S11302A08F708093B6008F3041F38FEE82BB0000D5
S11302B080B38F708093B6008F3019F01092B7001E
S11302C027C08FED82BB000080B38F708093B6008F
S11302D08F3021F081E08093B7001AC08FEB82BB8E
S11302E0000080B38F708093B6008F3021F082E0DD
S11302F08093B7000DC08FE782BB000080B38F707E
S11303008093B6008F3009F4ABCF83E08093B700BD
S11303109091B6009E3091F48091B700813009F439
S113032052C008F44DC0823019F0833021F006C069
S113033024E630E053C026E630E050C09D30A1F4FE
S11303408091B700813009F441C028F0823031F047
S1130350833039F034C028E630E040C02CE630E089
S11303603DC026E930E03AC09B3099F48091B70053
S1130370813079F128F0823031F0833039F01FC0B8
S11303802EE630E02BC022E730E028C024E730E03E
S113039025C08091B7008130F9F028F0823031F027
S11303A0833039F009C026E730E018C02AE730E08E
S11303B015C02CE730E012C027E630E00FC00895E6
S11303C020E630E00BC022E630E008C02AE630E048
S11303D005C020E730E002C028E730E0822F932FE9
S11303E00895CF93DF93CDB7DEB764970FB6F89433
S11303F0DEBF0FBECDBF0E9449000E944F0080E7C0
S11304000E9455000E94D40080E80E949E008EE75E
S113041090E00E94230180EC0E949E0084E10E94EF
S11304209E0084E10E949E0084E10E949E0084E17B
S11304300E949E0088E990E00E9423012FE986E84B
S113044091E0215080409040E1F700C0000000E0BE
S113045010E00BC088E10E949E0087EA91E60197B4
S1130460F1F700C000000F5F1F4F0B31110594F32B
S113047081E00E949E0080E80E949E0080EA90E055
S11304800E94230180EC0E949E008FE00E949E0047
S113049000E010E00E943001BC01CE010B960E94E6
S11304A0E80264E770E0CE010B960E94DF02892B1C
S11304B001F51016110674F580E10E949E0086E68F
S11304C090E00E94230180E10E949E0080E10E944E
S11304D09E0084E10E949E0001501109E1E0F0E0D9
S11304E0EC0FFD1FE00FF11F80E290E09183808309
S11304F011C0CE010B960E942301BE01655F7F4FA0
S113050081E090E08C0F9D1F800F911F0E94E802F4
S11305100F5F1F4F66E670E0CE010B960E94DF026C
S1130520892B09F0B7CFCE0101960E94C1029093A6
S1130530B5008093B40081E00E949E0080E80E9490
S11305409E008091B4009091B5000E942301809197
S1130550B5008F938091B4008F9381EB90E09F93CB
S11305608F930E94F7029FE32DE083E09150204097
S11305708040E1F700C000000F900F900F900F90A3
S113058043CFFC0188279927E89421912032E9F38D
S1130590293010F02E30C8F32B3241F02D3239F4CB
S11305A0689404C00E94EF02820F911D2191205390
S11305B02A30C0F31EF4909581959F4F0895FB0156
S11305C0DC018D91019080190110D9F3990B0895E4
S11305D0FB01DC0101900D920020E1F708957AE01F
S11305E0979F902D879F802D910D11240895A0E051
S11305F0B0E0EDEFF2E00C94AE05AE014B5F5F4F5F
S1130600FA0161917191AF018091BA009091BB00A0
S11306100E940D03E2E00C94CA05ABE0B0E0E3E114
S1130620F3E00C949E056C017B018A01FC011782A6
S11306301682838181FFCCC1CE0101963C01F60173
S11306409381F70193FD859193FF81917F01882325
S113065009F4BAC1853239F493FD859193FF8191F0
S11306607F01853229F4B60190E00E940405E7CFAA
S1130670912C212C312CFFE1F315D8F08B3279F039
S113068038F4803279F08332A1F4232D20611DC027
S11306908D3261F0803369F4232D216016C0832DDF
S11306A08260382EE32DE4603E2E2AC0F32DF860DC
S11306B01DC037FC2DC020ED280F2A3040F08E32AB
S11306C0B9F436FC81C1232D2064322E19C036FEC4
S11306D006C08AE0989E200D1124922E11C0EAE0F3
S11306E02E9E200D1124222EF32DF0623F2E08C0E1
S11306F08C3621F4832D8068382E02C0883641F46C
S1130700F70193FD859193FF81917F018111B3CF0F
S1130710982F9F7D9554933028F40C5F1F4F9FE3CF
S113072099830DC0833631F0833771F0833509F036
S113073059C021C0F801808189830E5F1F4F88242E
S11307408394912C530113C02801F2E04F0E511CE5
S1130750F801A080B18036FE03C0692D70E002C0AC
S11307606FEF7FEFC5010E94F9044C018201F32D64
S1130770FF773F2E16C0280122E0420E511CF801DB
S1130780A080B18036FE03C0692D70E002C06FEF17
S11307907FEFC5010E94EE044C01F32DF0683F2E5B
S11307A0820133FC1BC0822D90E088169906B0F4B8
S11307B0B60180E290E00E9404052A94F4CFF5018A
S11307C037FC859137FE81915F01B60190E00E946C
S11307D0040521102A9421E0821A910881149104BD
S11307E071F7E8C0843611F0893641F5F80137FE17
S11307F007C060817181828193810C5F1F4F08C0A3
S113080060817181072E000C880B990B0E5F1F4FBE
S1130810F32DFF763F2E97FF09C090958095709534
S113082061957F4F8F4F9F4FF0683F2E2AE030E055
S1130830A3010E944005882E861845C0853731F4EF
S1130840232D2F7EB22E2AE030E025C0932D997FF0
S1130850B92E8F36C1F018F4883579F0B5C08037D9
S113086019F0883721F0B0C0E92FE061BE2EB4FE44
S11308700DC0FB2DF460BF2E09C034FE0AC0292F21
S11308802660B22E06C028E030E005C020E130E04A
S113089002C020E132E0F801B7FE07C06081718137
S11308A0828193810C5F1F4F06C06081718180E05B
S11308B090E00E5F1F4FA3010E944005882E86180A
S11308C0FB2DFF773F2E36FE0DC0232D2E7FA22E4B
S11308D0891458F434FE0BC032FC09C0832D8E7E7B
S11308E0A82E05C0B82CA32C03C0B82C01C0B92C69
S11308F0A4FE0FC0FE01E80DF11D8081803321F4B8
S11309009A2D997EA92E09C0A2FE06C0B394B39471
S113091004C08A2D867809F0B394A3FC11C0A0FE0C
S113092006C0B21488F4280C922C9B180EC0B21482
S113093060F4B60180E290E00E940405B394F7CF1E
S1130940B21418F42B1802C0982C212CA4FE10C049
S1130950B60180E390E00E940405A2FE17C0A1FC4A
S113096003C088E790E002C088E590E0B6010CC0BF
S11309708A2D867859F0A1FE02C08BE201C080E284
S1130980A7FC8DE2B60190E00E940405891438F4B6
S1130990B60180E390E00E9404059A94F7CF8A940C
S11309A0F301E80DF11D8081B60190E00E94040579
S11309B08110F5CF222009F442CEB60180E290E006
S11309C00E9404052A94F6CFF6018681978102C01D
S11309D08FEF9FEF2B96E2E10C94BA05FC01059092
S11309E0615070400110D8F7809590958E0F9F1F2D
S11309F00895FC016150704001900110D8F7809572
S1130A0090958E0F9F1F08950F931F93CF93DF939D
S1130A10FB01238121FD03C08FEF9FEF2CC022FF38
S1130A2016C046815781248135814217530744F407
S1130A30A081B1819D012F5F3F4F318320838C932F
S1130A40268137812F5F3F4F3783268314C08B0164
S1130A50EC01FB010084F185E02D0995892BE1F679
S1130A60D80116968D919C911797019617969C9391
S1130A708E931697CE01DF91CF911F910F91089518
S1130A80FA01AA27283051F1203181F1E8946F93BB
S1130A906E7F6E5F7F4F8F4F9F4FAF4FB1E03ED061
S1130AA0B4E03CD0670F781F891F9A1FA11D680FFF
S1130AB0791F8A1F911DA11D6A0F711D811D911D32
S1130AC0A11D20D009F468943F912AE0269F1124A7
S1130AD03019305D3193DEF6CF010895462F47700B
S1130AE0405D4193B3E00FD0C9F7F6CF462F4F7066
S1130AF0405D4A3318F0495D31FD4052419302D0C4
S1130B00A9F7EACFB4E0A695979587957795679569
S1130B10BA95C9F700976105710508959B01AC0169
S1130B200A2E06945795479537952795BA95C9F790
S1130B30620F731F841F951FA01D08952F923F926B
S1130B404F925F926F927F928F929F92AF92BF92D9
S1130B50CF92DF92EF92FF920F931F93CF93DF9385
S1130B60CDB7DEB7CA1BDB0B0FB6F894DEBF0FBEE2
S1130B70CDBF09942A88398848885F846E847D842F
S1130B808C849B84AA84B984C884DF80EE80FD8031
S1130B900C811B81AA81B981CE0FD11D0FB6F894A7
S1110BA0DEBF0FBECDBFED010895F894FFCF68
S1130BAE370034003100200038003500320039009F
S1130BBE360033003D002F0078002D002B005275B7
S1130BCE6262657220536F6C7574696F6E204D6925
S1130BDE78657220312E300057656C636F6D650039
S1130BEE4E756D626572206F662074726179733F03
S1070BFE0025640066
S9030000FC
