:100000000C942A000C9447000C9447000C94470071
:100010000C9447000C9447000C9447000C94470044
:100020000C9447000C9447000C9447000C94470034
:100030000C9447000C9447000C9447000C94470024
:100040000C9447000C9447000C9447000C94470014
:100050000C94470011241FBECFE5D8E0DEBFCDBF12
:1000600010E0A0E6B0E0E2E3F8E002C005900D92F7
:10007000AE3FB107D9F721E0AEEFB0E001C01D926D
:10008000A630B207E1F70E94F1010C9417040C941A
:10009000000082E680B984E086BF11B8089584EA42
:1000A00086BF06B607FEFDCF089583B984E886BFF4
:1000B00006B607FEFDCF089540E050E00AC02F5F6E
:1000C0003F4F02C020E030E029373105C4F34F5FD5
:1000D0005F4F84179507B4F7089583B1826083B9A1
:1000E00084E886BF06B607FEFDCF81E090E00E945F
:1000F0005C0083B18D7F83B984E886BF06B607FEB6
:10010000FDCF089593B19E7F93B994E896BF06B64C
:1001100007FEFDCF93B19F7093B994E896BF06B6E2
:1001200007FEFDCF93B1807F892B83B984E886BF1A
:1001300006B607FEFDCF0E946D000895CF93C82F2D
:1001400083B18E7F83B984E886BF06B607FEFDCFF4
:1001500083B18F7083B984E886BF06B607FEFDCFF2
:1001600083B19C2F907F892B83B984E886BF06B624
:1001700007FEFDCF0E946D0083B18F7083B984E8C4
:1001800086BF06B607FEFDCF23B130E1C39FC00195
:100190001124822B83B984E886BF06B607FEFDCF03
:1001A0000E946D00CF91089580E30E94820080E359
:1001B0000E94820080E20E94820088E20E949E00EB
:1001C0008CE00E949E0081E00E949E0086E00E94DA
:1001D0009E0080E80E949E000895CF93C82F83B1AF
:1001E000816083B984E886BF06B607FEFDCF83B180
:1001F0008F7083B984E886BF06B607FEFDCF83B152
:100200009C2F907F892B83B984E886BF06B607FEB2
:10021000FDCF0E946D0083B18F7083B984E886BFE3
:1002200006B607FEFDCF23B130E1C39FC001112404
:10023000822B83B984E886BF06B607FEFDCF0E94F5
:100240006D00CF910895CF93DF93EC0103C0219609
:100250000E94ED0088818111FACFDF91CF9108953E
:1002600080EF81BB8FEF82BB8FE082BB000080B349
:100270008F70809304018F30B9F787E893E101977D
:10028000F1F700C0000080B38F70809304018F30BD
:10029000A1F38FE097E20197F1F700C0000080B36F
:1002A0008F70809304018F3041F38FEE82BB00008A
:1002B00080B38F70809304018F3019F01092050184
:1002C00027C08FED82BB000080B38F708093040144
:1002D0008F3021F081E0809305011AC08FEB82BB43
:1002E000000080B38F70809304018F3021F082E092
:1002F000809305010DC08FE782BB000080B38F7033
:10030000809304018F3009F4ABCF83E08093050123
:10031000909104019E3091F480910501813009F49F
:1003200052C008F44DC0823019F0833021F006C06D
:1003300024E630E053C026E630E050C09D30A1F402
:1003400080910501813009F441C028F0823031F0FC
:10035000833039F034C028E630E040C02CE630E08D
:100360003DC026E930E03AC09B3099F48091050108
:10037000813079F128F0823031F0833039F01FC0BC
:100380002EE630E02BC022E730E028C024E730E042
:1003900025C0809105018130F9F028F0823031F0DC
:1003A000833039F009C026E730E018C02AE730E092
:1003B00015C02CE730E012C027E630E00FC00895EA
:1003C00020E630E00BC022E630E008C02AE630E04C
:1003D00005C020E730E002C028E730E0822F932FED
:1003E0000895CF93DF93CDB7DEB764970FB6F89437
:1003F000DEBF0FBECDBF0E9449000E944F0080E7C4
:100400000E9455000E94D40080E80E949E008EE762
:1004100090E00E94230180EC0E949E0084E10E94F3
:100420009E0084E10E949E0084E10E949E0084E17F
:100430000E949E0088E990E00E9423012FE986E84F
:1004400091E0215080409040E1F700C0000000E0C2
:1004500010E00BC088E10E949E0087EA91E60197B8
:10046000F1F700C000000F5F1F4F0B31110594F32F
:1004700081E00E949E0080E80E949E0080EA90E059
:100480000E94230180EC0E949E008FE00E949E004B
:1004900000E010E00E943001BC01CE010B960E94EA
:1004A000080464E770E0CE010B960E94FF03892BDD
:1004B00001F51016110674F580E10E949E0086E693
:1004C00090E00E94230180E10E949E0080E10E9452
:1004D0009E0084E10E949E0001501109E1E0F0E0DD
:1004E000EC0FFD1FE00FF11F80E290E0918380830D
:1004F00011C0CE010B960E942301BE01655F7F4FA4
:1005000081E090E08C0F9D1F800F911F0E940804D6
:100510000F5F1F4F66E670E0CE010B960E94FF034F
:100520007C01CE0101960E94E103AC0121E0EF289D
:1005300009F420E091E04115510509F090E0922B7B
:1005400009F0A8CF509303014093020181E00E947B
:100550009E0080E80E949E0080910201909103011C
:100560004497FCF081EB90E00E9423019FE926E88C
:1005700081E0915020408040E1F700C0000000E0A1
:1005800010E00BC088E10E949E0087EA91E6019787
:10059000F1F700C000000F5F1F4F0B31110594F3FE
:1005A00067CF8CEC90E00E94230180EC0E949E00BB
:1005B0008FE00E949E001B86198200E010E00E94DE
:1005C0003001BC01CE010B960E94080464E770E084
:1005D000CE010B960E94FF03892B01F51016110620
:1005E00074F580E10E949E0086E690E00E9423015F
:1005F00080E10E949E0080E10E949E0084E10E94B2
:100600009E0001501109E1E0F0E0EC0FFD1FE00F4A
:10061000F11F80E290E09183808311C0CE010B96A0
:100620000E942301BE01655F7F4F81E090E08C0F47
:100630009D1F800F911F0E9408040F5F1F4F66E6E9
:1006400070E0CE010B960E94FF037C01CE01019663
:100650000E94E103BC0121E0EF2809F420E091E0D1
:100660006115710509F090E0922B09F0A8CF072ED3
:10067000000C880B990B0E947D036093FE00709321
:10068000FF00809300019093010181E00E949E0091
:1006900080E80E949E006091FE007091FF008091B2
:1006A00000019091010120E030E44CE955E40E9402
:1006B000B80388230CF4A8CE80EE90E00E942301BA
:1006C0009FE926E881E0915020408040E1F700C09A
:1006D000000000E010E00BC088E10E949E0087EA65
:1006E00091E60197F1F700C000000F5F1F4F0C313A
:1006F000110594F356CFE89409C097FB3EF490950A
:100700008095709561957F4F8F4F9F4F9923A9F0EA
:10071000F92F96E9BB279395F69587957795679579
:10072000B795F111F8CFFAF4BB0F11F460FF1BC0BD
:100730006F5F7F4F8F4F9F4F16C0882311F096E950
:1007400011C0772321F09EE8872F762F05C06623FE
:1007500071F096E8862F70E060E02AF09A95660FB7
:10076000771F881FDAF7880F9695879597F9089570
:100770000E94BD0308F48FEF0895990F0008550FEC
:10078000AA0BE0E8FEEF16161706E807F907C0F017
:1007900012161306E407F50798F0621B730B840B1F
:1007A000950B39F40A2661F0232B242B252B21F4F9
:1007B00008950A2609F4A140A6958FEF811D811D99
:1007C0000895FC0188279927E89421912032E9F3C4
:1007D000293010F02E30C8F32B3241F02D3239F48D
:1007E000689404C00E940F04820F911D2191205330
:1007F0002A30C0F31EF4909581959F4F0895FB0118
:10080000DC018D91019080190110D9F3990B0895A5
:10081000FB01DC0101900D920020E1F708957AE0E0
:10082000979F902D879F802D910D11240895F89406
:02083000FFCFF8
:100832003700340031002000380035003200390022
:10084200360033003D002F0078002D002B0052753A
:100852006262657220536F6C7574696F6E204D69A8
:1008620078657220312E300057656C636F6D6500BC
:100872004E756D626572206F662074726179733F86
:1008820000456E74657220612076616C7565206C1E
:10089200657373207468616E20323000566F6C2E5F
:1008A200206F662061207472617920286D6C2900A6
:1008B200456E74657220612076616C7565206C6589
:0E08C2007373207468616E2035303030000092
:00000001FF
