S00D000074657374322E7372656325
S11300000C942A000C9447000C9447000C9447006D
S11300100C9447000C9447000C9447000C94470040
S11300200C9447000C9447000C9447000C94470030
S11300300C9447000C9447000C9447000C94470020
S11300400C9447000C9447000C9447000C94470010
S11300500C94470011241FBECFE5D8E0DEBFCDBF0E
S113006010E0A0E6B0E0ECE2F3E002C005900D92EF
S1130070A439B107D9F720E0A4E9B0E001C01D928A
S1130080A639B207E1F70E941D010C9494010C9467
S1130090000080EF84BB8FEF85BB85B38F7085BB79
S11300A0000083B38F70809394008F30B1F787E89A
S11300B093E10197F1F700C0000083B38F70809340
S11300C094008F30A1F38FE097E20197F1F700C01D
S11300D0000083B38F70809394008F3041F38FEED0
S11300E085BB000083B38F70809394008F3019F028
S11300F01092950027C08FED85BB000083B38F70ED
S1130100809394008F3021F081E0809395001AC091
S11301108FEB85BB000083B38F70809394008F3086
S113012021F082E0809395000DC08FE785BB00002D
S113013083B38F70809394008F3009F4AACF83E047
S113014080939500809194008E3059F4E09195004D
S1130150F0E0EE0FFF1FEE0FFF1FE05AFF4F80810C
S113016008958D3059F4E0919500F0E0EE0FFF1FF3
S1130170EE0FFF1FE05AFF4F818108958B3059F431
S1130180E0919500F0E0EE0FFF1FEE0FFF1FE05A25
S1130190FF4F82810895E0919500F0E0EE0FFF1F7C
S11301A0EE0FFF1FE05AFF4F8381089588BB88B389
S11301B08B7F88BB88B3886088BB89EF90E0019708
S11301C0F1F700C0000088B3877F88BB0895CF9300
S11301D0C82F807F0E94D6008C2F8295807F0E943A
S11301E0D600CF91089582E00E94E70088E20E9441
S11301F0E7008EE00E94E70086E00E94E700089591
S113020088BB88B3846088BB88B3886088BB89EF67
S113021090E00197F1F700C0000088B3877F88BBA6
S11302200895CF93C82F807F0E9400018C2F829560
S1130230807F0E940001CF9108950F931F93CF9365
S1130240DF93CDB7DEB7A3970FB6F894DEBF0FBE2A
S1130250CDBF81E1E0E7F0E0DE01119601900D925F
S11302608A95E1F782E1E1E8F0E0DE01529601903F
S11302700D928A95E1F78FEF87BB0E94F30000E0AF
S113028010E00AC00E9411018FE99FE00197F1F785
S113029000C000000F5F1F4FE1E0F0E0EC0FFD1F16
S11302A0E00FF11F80818111EDCF80EC0E94E70007
S11302B00E944900803279F08D3351F484E00E9429
S11302C0E70080E20E94110186E00E94E700F0CF7F
S11302D00E941101EDCF81E00E94E70086E00E94B8
S11302E0E70000E010E00AC00E9411018FE99FE0DE
S11302F00197F1F700C000000F5F1F4FE2E1F0E04B
S1130300EC0FFD1FE00FF11F80818111EDCF80E024
S113031090E0A3960FB6F894DEBF0FBECDBFDF9179
S10F0320CF911F910F910895F894FFCF26
S113032C3738392E343536783132332D20303D2B55
S113033C4E756D626572206F662074726179733FBD
S113034C00566F6C2E206F66207472617920284CD5
S107035C293F000031
S9030000FC
